:1000000066C0ECC17DC07CC07BC07AC079C078C0BE
:1000100077C076C075C074C073C072C071C070C044
:100020006FC06EC06DC004030904200363006F003D
:100030006400650061006E0064006C006900660089
:1000400065002E0063006F006D001003500061001A
:1000500073007300670065006E001201100100005C
:100060000008424231E100010102000109022200C0
:1000700001010080190904000001030101000921A8
:1000800001010001223F000705810308000A050164
:100090000906A10175019508050719E029E7150072
:1000A00025018102950175088103950575010508F3
:1000B00019012905910295017503910395067508AB
:1000C000150025650507190029658100C000112468
:1000D0001FBECFEDCDBF10E0A0E6B0E0E8E5F7E051
:1000E00002C005900D92A436B107D9F710E0A4E63E
:1000F000B0E001C01D92A43AB107E1F7D8D22AC3FB
:100100007FCF85B7826085BF8BB780648BBF8BE460
:1001100080937A008AE58093790008951F93CF93A6
:10012000DF9360918A00635067FDC2C080918700B1
:10013000CCE0D0E0C81BD109C257DF4F80918600C8
:100140008D3209F0A3C0683009F0B0C083EC809311
:100150006E008AE58093600010926400888180764A
:1001600039F0CE0153D2282F8F3F09F47EC084C0CE
:100170009A81109277008981882321F41092780067
:1001800022E06CC0853019F490938B0066C08630F5
:1001900009F04FC08B81813041F48AE590E0909363
:1001A00089008093880022E140C0823041F48CE6CF
:1001B00090E0909389008093880022E236C08330DB
:1001C000F9F48A81882341F486E290E090938900D3
:1001D0008093880024E029C0813041F48AE290E0D5
:1001E000909389008093880020E21FC08230E1F460
:1001F0008AE490E0909389008093880020E115C004
:10020000813241F48EE790E09093890080938800DA
:1002100029E00BC0823241F48EE890E0909389008F
:10022000809388002FE301C020E080E48093640085
:1002300023C0883021F421E08DE890E011C089309E
:1002400019F490938D0009C08A3011F421E006C0A2
:100250008B3019F48BE480937A0020E087E790E0FC
:10026000909389008093880007C0888187FD2E8144
:1002700080E88093640006C08F81882319F48E8102
:10028000821708F0822F8093610010C08091640073
:1002900087FF0CC0CE01EDD18F3F21F48EE180931A
:1002A000600004C0882311F01092610010928A004F
:1002B0008091600084FF49C0809161008F3F09F404
:1002C00044C0182F893008F018E0811B809361002A
:1002D00080916E0098E8892780936E00112341F188
:1002E00020918800309189008091640086FF0DC0C4
:1002F000AFE6B0E080E090E0F901E80FF91FE4918B
:10030000ED9301961817C1F708C0912FD901EFE6B8
:10031000F0E08D9181939150E1F71150812F90E0A1
:100320001F5F0196820F931F90938900809388002E
:100330008FE690E0612F4ED0612F6C5F6C3019F02A
:100340008FEF809361006093600094E180B38C70C4
:1003500031F49150D9F710928B0010928500DF9103
:10036000CF911F9108951F93DC01162F8091790082
:1003700084FF07C080917A0098E8892780937A00EB
:1003800003C08AE580937900912FEBE7F0E08D912F
:10039000819391501916DCF38BE790E0612F1AD00E
:1003A0001C5F109379001F910895A82FB92F80E04A
:1003B00090E041E050EA609530E009C02D9182273D
:1003C0009795879510F084279527305EC8F36F5F67
:1003D000A8F30895EADF8D939D930895CF93CFB747
:1003E000CF93DF93C395839BE9F7839B11C0839BD6
:1003F0000FC0839B0DC0839B0BC0839B09C0839B55
:1004000007C0839B05C0839B03C0839B01C083C03F
:100410006F93C0918700DD27C257DF4F2F9320E4F1
:1004200000C065E0839B03C02F916F91DECF0F93D7
:100430001F934F9345E55F9355E53F933BE014E0F1
:1004400000B30C702EC06A95C9F03150D8F100B3DA
:100450000C7001130BC008942795299320E455557F
:1004600000F46A9569F701E060B30BC0102F66E0F5
:100470002695299320E4555518F3E2CF0FEF60B38A
:100480000000162F455500F0404066E01C7000301B
:10049000E2F221F0000000B30C7003C000B30C7056
:1004A000A9F0011309C00894279568F200C06A9565
:1004B000A9F700E060B3E5CF102F66E0269528F29B
:1004C0000000ECCF10E41ABF002719C03B50319553
:1004D000C31BD04010E41ABF0881033C09F10B3460
:1004E000F9F0209185001981110F1213EDCF4A8187
:1004F000441F093651F10D3211F0013E29F70093E6
:100500008C003F915F914F911F910F912F916F91AF
:10051000CAB7C6FD67CFDF91CF91CFBFCF911895F6
:1005200020918C00222369F310918A00112381F518
:10053000343082F130938A00209386001091870036
:100540003BE0311B3093870025C000918A000130C9
:10055000FCF40AE54F7049F43091600034FD1BC093
:1005600000936000CEE6D0E01AC03091790034FDEF
:1005700012C000937900CAE7D0E011C0052710E04F
:1005800000C002BB19C0052710E0221F00C01DC01B
:100590004AE502C032ED432FC4E1D0E032E011B3AE
:1005A0001C60939A02B311BB5CE020E869E420FF71
:1005B000052702BB2795179500C000001C3FF0F6E9
:1005C0006695A8F7A1F720FF052702BB2795179589
:1005D00000001C3FC0F629913A9541F7037F109126
:1005E0008B00110F02BBC651D04011F01093850053
:1005F00010E41ABF086011B3137F402F437F55E00A
:100600005A95F1F702BB11BB42BB7BCFFC01808145
:100610008076803261F581818230E1F0833018F498
:10062000813029F505C0893079F08A3001F51AC08A
:1006300085E690E090938900809388001092650091
:100640001092670088E0089586819781019779F478
:100650008FEF08958DE690E0909389008093880055
:1006600081E00895838180936D0080E0089580E0AB
:100670000895FC01E08180916200E81749F0E09361
:1006800062008091620081FF02C0C09A01C0C098E0
:1006900081E00895982F1092650081568A3120F4E8
:1006A0009D559093670008951092670008950F93E9
:1006B0001F9381E087BB82E088BBE5E6F0E0119202
:1006C00080E0ED36F807D9F72EE088E190E00FB62C
:1006D000F894A89581BD0FBE21BD13DD8B9A20E053
:1006E00040E157E2A895CA010197F1F72F5F2A3F31
:1006F000C9F78B9883B7826083BF789400E010E0DD
:10070000A8950CDDB19906C0112311F50F3F01F535
:1007100011E01EC00F3F09F00F5F8091790084FF48
:10072000EFCF112369F3809162008F3F49F31130BD
:1007300019F0123039F404C088E7ACDF12E003C0CE
:1007400080E0A8DF10E085E690E068E00CDED8CF1E
:0807500000E0E2CFF894FFCFB6
:040758005AFFFF0045
:00000001FF
